:100000000C9410050C9448050C9448050C94480574
:100010000C9448050C9448050C9448050C9448052C
:100020000C9448050C9448050C94DB1E0C94971E08
:100030000C9499290C9448050C9448050C94480597
:100040000C9448050C9448050C9448050C944805FC
:100050000C9448050C940A200C9448050C9448050F
:100060000C9448050C9448050C9448050C944805DC
:100070000C9448050C9448050C9448050C944805CC
:100080000C9448050C9448050C9448050C944805BC
:100090000C9448050C9448050C9448050C944805AC
:1000A0000C9448050C9448050C9448050631FF094A
:1000B00074A1010975150026FF00952075088102BD
:1000C0000976150026FF00952075089102C00501EC
:1000D0000980A101850319012AB700150126B7007F
:1000E000950175108100C0050C0901A10185041955
:1000F000012AA002150126A002950175108100C0F9
:1001000005010906A1018506050719E029E7150083
:1001100025019508750181020507190029EF1500D1
:10012000250195F07501810205081901290595053C
:1001300075019102950175039101C00660FF096187
:10014000A1010962150026FF0095207508810209AA
:1001500063150026FF00952075089102C00501096E
:1001600006A101050719E029E71500250195087585
:100170000181029501750881010507190029FF1504
:100180000026FF009506750881000508190129055C
:10019000950575019102950175039101C00000005C
:1001A000000000000000000000000000000000004F
:1001B000000000000000000000000000000000003F
:1001C000007E0F00D4FFFFFFC70000007800000092
:1001D00000000000002A2B280000000000000000A2
:1001E000000000000000000029000000002C1E3468
:1001F00020212224342627252E362D3738271E1F6E
:10020000202122232425263333362E37381F040598
:10021000060708090A0B0C0D0E0F10111213141506
:10022000161718191A1B1C1D2F3130232D350405E4
:10023000060708090A0B0C0D0E0F101112131415E6
:10024000161718191A1B1C1D2F3130354C44454206
:1002500055473A2064697361626C65642E0A0044F4
:10026000454255473A20656E61626C65642E0A000E
:100270004F6E6573686F743A206163746976653A8E
:100280002025640A000A002530325820006B657969
:10029000626F6172645F7265706F72743A2000728F
:1002A00067625F6D61747269785F636F6E666967BC
:1002B0002E666C616773203D2025640A00726762B8
:1002C0005F6D61747269785F636F6E6669672E73C4
:1002D00070656564203D2025640A007267625F6D69
:1002E00061747269785F636F6E6669672E68737692
:1002F0002E76203D2025640A007267625F6D61746E
:100300007269785F636F6E6669672E6873762E73A5
:10031000203D2025640A007267625F6D6174726916
:10032000785F636F6E6669672E6873762E68203D0E
:100330002025640A007267625F6D61747269785F7C
:10034000636F6E6669672E6D6F6465203D2025645E
:100350000A007267625F6D61747269785F636F6EC5
:100360006669672E656E61626C65203D2025640AB2
:10037000007267625F6D61747269785F636F6E6649
:10038000696720454550524F4D0A007267625F6DA4
:1003900061747269785F696E69745F6472697665A9
:1003A0007273207267625F6D61747269785F636FE8
:1003B0006E6669672E6D6F6465203D20302E205774
:1003C000726974652064656661756C742076616C11
:1003D00075657320746F20454550524F4D2E0A00AD
:1003E0007267625F6D61747269785F696E69745F6C
:1003F00064726976657273206565636F6E6669679E
:10040000206973206E6F7420656E61626C65642E66
:100410000A005B735D000A00253033326C62003ADB
:10042000200025303258000A722F632030313233D9
:10043000343536373839414243444546303132331A
:100440003435363738394142434445460A000A00BC
:1004500025303258006C65645F7461736B3A20001C
:100460000001010101010101010102020202020277
:10047000020202030303030303030304040404044A
:100480000404050505050506060606060707070711
:100490000708080808090909090A0A0A0B0B0B0CC6
:1004A0000C0C0D0D0D0E0E0E0F0F0F101011111163
:1004B00012121313141415151616171718181919E4
:1004C0001A1A1B1B1C1D1D1E1E1F20202122222349
:1004D0002424252626272829292A2B2C2D2D2E2F8A
:1004E00030313232333435363738393A3B3C3D3EA1
:1004F0003F404142434445464748494A4C4D4E4F90
:1005000050515354555658595A5B5D5E5F61626451
:10051000656668696B6C6D6F7072737577787A7BDE
:100520007D7E8082838587888A8C8E8F9193959635
:10053000989A9C9EA0A2A3A5A7A9ABADAFB1B3B555
:10054000B7BABCBEC0C2C4C6C9CBCDCFD1D4D6D831
:10055000DBDDDFE2E4E7E9EBEEF0F3F5F8FAFDFFCF
:100560006565636F6E6669675F7570646174655F0A
:100570007267625F6D61747269785F6465666175E8
:100580006C740A00726762206D61747269782074FD
:100590006F67676C65205B25735D3A207267625FE9
:1005A0006D61747269785F636F6E6669672E656EE0
:1005B00061626C65203D2025750A00726762206DBE
:1005C0006174726978206D6F6465205B25735D3A94
:1005D0002025750A00726762206D61747269782047
:1005E00073657420687376205B25735D3A202575EA
:1005F0002C25752C25750A00726762206D61747256
:10060000697820736574207370656564205B257359
:100610005D3A2025750A001440C0000401C40F7C17
:10062000E14517F4C1C71E6CA24926E482CB2D5CBC
:10063000634D35D443CF3C50308104C810030C4087
:10064000F18413B8D1061B30B28822A8920A2A205E
:10065000738C3198530E3920708001985002091024
:100660003184108811061800F2871F78D20927F00C
:10067000B28B2E68930D36E0738F3D5C604105D4DC
:1006800040C30C4C214514C401C71B3CE24823B4B1
:10069000C2CA2A2CA34C32A483CE392CA04002A477
:1006A00080C2091C6144119441C6180C2248208460
:1006B00002CA27FCE24B2F74C3CD36ECA34F3E6831
:1006C000900106E070830D58510515D031871C4804
:1006D000120924C0F28A2B38D30C33B0B38E3A38C7
:1006E000D00003B0B0820A28910412A071861918B4
:1006F00052082190328A2808130C3080F38D37F885
:10070000D30F3F74C0C106ECA0430E6481C515DC55
:1007100061471D4400C103BCE0420B34C1C412ACAC
:10072000A1461A2482C8219C624A291443CC308CE9
:10073000234E380404D03F40F490436484D145886C
:10074000141248ACA4524A185514510810000080E5
:10075000F08107F8D0030F6072892570B491469438
:1007600044D248B8D4124BDC64534D00F5934F2467
:1007700085D45148151554290000003A003B003C2F
:10078000003D003E003F0040004100420043004465
:1007900000450046004700480035001E001F0020AD
:1007A0000021002200230024002500260027002D20
:1007B000002E002A0049004A004B002B0014001AAA
:1007C000000800150017001C0018000C0012001390
:1007D000002F00300028004C004D004E003900046E
:1007E000001600070009000A000B000D000E000FA4
:1007F000003300340032000000000000000000E17F
:100800000064001D001B0006001900050011001007
:1008100000360037003800E50000000000520000FC
:1008200000E000E300E200000000002C00000000F7
:100830000000000000E600E7002152E400500051F3
:10084000004F00007C0000AC00AA00A900AB000132
:100850000001000100010001000100010001000190
:100860000001000100010020782B782C782D782ED3
:10087000782F783078327801000100010001000102
:10088000000100010029780100237824780100018B
:100890000001000100010001000100010001000150
:1008A000000100027C01002A780100010001000122
:1008B0000001000100010001000100010001000130
:1008C0000001000000000000000000010001000124
:1008D0000001000100010001000100010001000110
:1008E0000001000100000000002778000001000165
:1008F00000010000000000010000000000000000F6
:1009000000010001000100010022782878217861AF
:1009100064645F6B65795F6269743A2063616E2716
:1009200074206164643A20253032580A0064656C92
:100930005F6B65795F6269743A2063616E2774202A
:1009400064656C3A20253032580A005B435D005BD9
:10095000445D005B535D005B575D005B525D0009C9
:10096000027B00040100A0FA090400000103010158
:100970000009211101000122400007058103080040
:100980000109040100020300000009211101000116
:10099000222200070582032000010705030320002F
:1009A00001090402000103000000092111010001F6
:1009B000226D0007058403200001090403000203DF
:1009C0000000000921110100012222000705850312
:1009D00020000107050503200001120100020000AC
:1009E0000008504B421102000102000116034200B0
:1009F0004D003800300076003200200049005300DE
:100A00004F00000016034B0050007200650070009C
:100A1000750062006C0069006300000004030904B3
:100A200011241FBECFEFDAE0DEBFCDBF04B603FE58
:100A300018C080916B0790916C07A0916D07B091E1
:100A40006E078730904BA740B04B59F410926B075C
:100A500010926C0710926D0710926E07E0E0F8E3B9
:100A6000099513E0A0E0B1E0EAEEF3E602C00590DC
:100A70000D92AC30B107D9F727E0ACE0B3E001C08C
:100A80001D92AB36B207E1F70E94C0290C946D317C
:100A90000C940000FF93EF93E0910C03F0910D0391
:100AA000309709F00995EF91FF910895FC01859128
:100AB000803011F0EFDFFBCF0895FF27E0E230E256
:100AC00047FF0CC0419597FF09C0EDE26095709516
:100AD00080959095611D711D811D911D27FF02C09C
:100AE000219530E350E2AA27660F771F881F991FD0
:100AF000AA1FA41710F0A41B63955A95A9F7AA3052
:100B000008F0A95FA05DAF93F395611571058105AC
:100B1000910541F7ED3211F4EF93F395F21718F4C4
:100B20003F93F395FBCF8F91B5DFFA95E1F70895E9
:100B3000E991F9918591803021F0853219F0AADF91
:100B4000F9CF089520E0E89455915532C1F3503320
:100B500011F4689455915A3348F4505390F3220F8E
:100B6000022E220F220F200D250FF4CF0EF4219517
:100B700089919991533619F3533729F1533559F126
:100B8000BC0188279927E8945C3621F489919991D2
:100B900068945591543639F446EF7EF077FF0DC0D6
:100BA0008FEF9FEF0AC055374AE039F0583540E1E2
:100BB00021F0523642E009F00895FF93EF937DDF74
:100BC000EF91FF91B7CFFF93EF93FC0181918030BC
:100BD000B9F360DFFBCFFF93EF9368DFF1CFDF93D3
:100BE000CF93CDB7DEB72596A3DFCF91DF910895E0
:100BF000E8EDF0E080818E7F80831092E200109219
:100C0000DA001092E100A0EEB0E08C9181608C934C
:100C100080818F77808319BCA7EDB0E08C918E7FA7
:100C20008C9380818F7E8083109206070895209197
:100C3000E4003091E50095E6A9012091EC00822FB7
:100C4000817020FF06C08091E80080FF06C080E030
:100C500008952091E80022FD1AC080912B07882377
:100C600089F0853089F08091EB0085FD0FC02091DF
:100C7000E4003091E50042175307F9F29150E1F694
:100C800084E0089582E0089583E0089581E0089566
:100C900080912D0787FF13C08091E80082FF06C076
:100CA0008091E8008B778093E80004C080912B0747
:100CB0008111F2CF089580912B078823D9F3809179
:100CC000E80080FFF8CF8091E8008E77ECCF982F76
:100CD0009093E900242F762F50E0891731F070911E
:100CE000EC002091ED005091F00021FD07C09F5FC6
:100CF000973071F78093E90081E008953091EB001F
:100D00003E7F3093EB003091ED003D7F3093ED005E
:100D10003091EB0031603093EB007093EC00209346
:100D2000ED005093F0002091EE0027FDE0CF80E031
:100D30000895B0E0A0E0EFE9F6E00C946130C8ED72
:100D4000D0E088818F7E8883E7EDF0E0808181604C
:100D5000808384E082BF81E08093060788818E7F54
:100D6000888302EE10E0F80110821092DA0081EE22
:100D7000C82ED12CF601108288818F7788838881D4
:100D80008068888388818F7D888319BC10922B07A7
:100D900010922C0710922A071092290790EEE92E44
:100DA000F12CF70180818B7F80838881816088832B
:100DB00042E060E080E00E946706F60180818E7F5D
:100DC0008083F80180818160808380818860808356
:100DD000F70180818E7F8083888180618883CDB791
:100DE000DEB7E8E00C947D30FC01809133079091F0
:100DF000340786179707A0F06115710529F49091C3
:100E0000E8009E779093E80090E06115710551F439
:100E1000911108C08091E80082FF34C080E00895FD
:100E2000BC01F2CF80912B078823C1F18530C1F13D
:100E30008091E80083FD30C08091E80082FDEACF18
:100E40008091E80080FFE1CF8091F3002091F200D3
:100E5000382F6115710519F02830310558F091E0EF
:100E60002830310509F090E02091E8002E7720939A
:100E7000E800CBCF81918093F100615071092F5F21
:100E80003F4FE7CF80912B07882341F0853041F019
:100E90008091E80083FFBECF81E0089582E008954D
:100EA00083E0089508958091080708952FB7F89476
:100EB0006091FD067091FE068091FF0690910007FB
:100EC0002FBF0895A3E0B0E0E8E6F7E00C946730A8
:100ED0002091F9063091FA0628173907A1F090936E
:100EE000FA068093F906E091F706F091F80630973C
:100EF00051F024E029839B838A830680F781E02DCB
:100F0000CE01019609952396E2E00C948330A3E08C
:100F1000B0E0EDE8F7E00C9467302091F5063091F1
:100F2000F60628173907A1F09093F6068093F50688
:100F3000E091F706F091F806309751F023E029830D
:100F40009B838A830680F781E02DCE010196099567
:100F50002396E2E00C948330E091F706F091F806D6
:100F6000309729F00190F081E02D0995089580E0F7
:100F70000895FA01811101C0FB0109950895EF92CE
:100F8000FF920F939701201B31092F3F310519F074
:100F900010F02FEF30E02095382F320F08F43FEF9C
:100FA000832F0F91FF90EF900895EF92FF920F9390
:100FB0009701201B31092F3F310519F010F02FEF59
:100FC00030E0322F3095482F430F08F44FEF842F35
:100FD000620F0F91FF90EF900895EF92FF920F93A1
:100FE000972F093438F4B701601B71096F3F710501
:100FF00019F010F06FEF70E0485F5F4F413151051D
:1010000040F0A901485F5F4F4131510510F06FEF8B
:1010100070E06095482F460F08F44FEF842F37FF9C
:1010200002C02D5F3F4F35952795359527956091E7
:101030003A07620F792F0F91FF90EF900895EF928A
:10104000FF920F931F930E0D1F2D111DF90137FFF6
:1010500003C0F195E195F10924E0EE0FFF1F2A95F9
:10106000E1F7EF3FF10519F014F0EFEFF0E09A012E
:1010700057FF03C031952195310994E0220F331FAA
:101080009A95E1F72E173F070CF4F901E00FF11FD5
:10109000EF3FF10519F010F0EFEFF0E0E095282FA9
:1010A0003E2F230F08F42FEF822F1F910F91FF90F7
:1010B000EF900895EF92FF920F93970195E0099FAB
:1010C000200D311D11242F3F310519F010F02FEFA5
:1010D00030E02095382F320F08F43FEF832F0F9127
:1010E000FF90EF90089522E8241B08F420E0620F9F
:1010F00008954095282F429F412D1124842F089553
:10110000E42FF0E0EE0FFF1FED5FFD4F9081921B8B
:1011100097FD9195292F38E1239F212D1124620FEE
:1011200008950F931F9310E0F801EE0FFF1FED5F7E
:10113000FD4F9081905797FD9195000F111FF80179
:10114000EC5FFD4F00810052110B2003F001219F45
:10115000F00D112408E310E0091B110997FD139508
:1011600040039001419F300D1124E20FF31F9F01B6
:10117000220F331F2E0F3F1F37FF02C021583F4F52
:10118000220F232F221F330B620F1F910F910895FF
:101190000F931F93522F10E0F801EE0FFF1FEC5F2B
:1011A000FD4FA081A052BB0B9D015203F001539F44
:1011B000F00D1124000F111FD801AD5FBD4F0C9130
:1011C0000057110B40039001419F300D11242E0F49
:1011D0003F1F37FF02C0215C3F4F96E035952795B2
:1011E0009A95E1F7620F1F910F9108950F931F9346
:1011F000522F10E0F801EE0FFF1FEC5FFD4FA081B2
:10120000A052BB0B9D015203F001539FF00D11241E
:10121000000F111FD801AD5FBD4F0C910057110B8E
:1012200040039001419F300D11242E0F3F1F37FFC7
:1012300002C021583F4F220F232F221F330B620F72
:101240001F910F910895EF920F93972F23E0029F24
:10125000B0011124759567956E0D792F0F91EF9060
:101260000895322F50E0FA01EE0FFF1FEC5FFD4FA3
:101270009081905297FD9195440F551FFA01ED5FB3
:10128000FD4F2081231B330B290F311D97FD3A950C
:10129000620F0895E42FF0E0EE0FFF1FEC5FFD4FAB
:1012A0006081621B0895E42FF0E0EE0FFF1FED5FF9
:1012B000FD4F6081621B0895622F0895E42FF0E0D6
:1012C000EE0FFF1FED5FFD4F408134EE439F412D38
:1012D0001124E82FF0E050E0445E5F4FDA01A21BDA
:1012E000B1099D01B7FF03C031952195310993E004
:1012F000220F331F9A95E1F7AF01421B530B9A015E
:1013000057FD20E0582F259F212D1124822F08956D
:101310000E94891508950E941F150895FC019B01E4
:10132000009729F480E077FF2BC080E80895AC0196
:1013300097FF04C044275527481B590BB901640F78
:10134000751F37FD10C0241B350BC901A5E0880FA0
:10135000991FAA95E1F70E949A3080E2861BF7FF59
:101360000FC081950895CB0165E0880F991F6A959C
:10137000E1F7BA01621B730B0E949A3080E6EECF50
:101380000895EF920F93CF93DF93D72FC82FC90102
:101390000E19BA010E948E09602F681B7D2F8C2FB9
:1013A000DF91CF910F91EF9008950F93CF93DF933B
:1013B000D72FC82FC901BA010E948E09682F600F6C
:1013C0007D2F8C2FDF91CF910F910895EF920F9386
:1013D0001F93CF93DF93D62FC72F182FC9010E1954
:1013E000010FBA010E948E09081B202F219F212D79
:1013F0001124822F6D2F7C2FDF91CF911F910F91A0
:10140000EF9008950F931F93CF93DF93D62FC72F9D
:10141000182FC901212F201B022FBA010E948E090B
:10142000982F990F990F891B800F282F219F212D0D
:101430001124822F6D2F7C2FDF91CF911F910F915F
:101440000895E82F86FDE0952E2F2F7086FD2F5FE3
:10145000E695E695E695E670F0E0EF57FE4F918150
:10146000929F902D212D112492959F702295207F7F
:10147000922B2081920F87FD919580E8890F089526
:10148000409108015091090125E038E0429FC001D8
:10149000439F900D529F900D1124875E994C90931D
:1014A000090180930801890F0895AC0182309105EC
:1014B00008F408959FEF413E8EE1580740F49A01E9
:1014C00095E0369527959A95E1F798E0920F61E0BF
:1014D000E62FE90FFF27FF1F9F0135952795822FE4
:1014E000229FF001239FF00DF00D11244E175F078E
:1014F00038F49FEF920F961758F78FEF860F0895E5
:101500002F3FE9F361E0620FF6CF0F93CF93DF93A4
:10151000D72FC82F47FD419588E390E0841B9109A0
:1015200047FD9395889FB001899F700D700D112420
:10153000229FC001239F900D900D1124860F971FAD
:101540000E94550A982F990F890F682F600F7D2FE1
:101550008C2FDF91CF910F91089530E020E0869F8E
:10156000212D969F200D311D1124C9010895AF92A0
:10157000BF92CF92DF92FF920F931F93CF93DF938F
:10158000362F472FE82FF0E0E05AFB4F71110FC0C4
:10159000E4918E2F2E2F6E2F722FDF91CF911F91FE
:1015A0000F91FF90DF90CF90BF90AF900895C72F1D
:1015B000D0E02491F22E022F10E056E0659FC0018A
:1015C0001124EFEFF0E0BF010E944330832F90E041
:1015D000880F991F35E5369FD001379FB00D112434
:1015E0008A1B9B0B982F990F980F6F01CC1ADD0A5D
:1015F000C09ED001C19EB00DD09EB00D11248B2F86
:10160000499FA0011124452F55276F01C41AD50AFF
:10161000C09EA001C19E500DD09E500D11245F01AF
:10162000A91AB108AC9E6001AD9ED00CBC9ED00C36
:101630001124CD2CDD24EC19FD09E09FE001E19F90
:10164000D00DF09FD00D1124ED2F62307105A1F067
:1016500050F46115710509F49ECF6130710581F078
:10166000EB2F852F98CF6430710569F080F06630DC
:10167000710509F490CFF4CFE22F2B2F8D2F8BCF54
:10168000E22F252F88CFEB2F822F2D2F84CF2B2FCA
:101690008F2DE52F80CF2F923F925F926F927F9296
:1016A0008F929F92AF92BF92CF92DF92EF92FF9272
:1016B0000F931F93CF93DF93CDB7DEB72A970FB663
:1016C000F894DEBF0FBECDBF8B837E836D832091E8
:1016D000220182E1289F802D11248F838E5E8983D1
:1016E0008A83893510F038E53A8380913F078C83EF
:1016F000FF81EF2FF0E0FA87E987CF01880F991F6C
:101700009C012D5F3D4F69013B81832F90E0FC01DF
:101710003196F887EF838A8199859817E8F081E000
:10172000E981E83508F080E02A960FB6F894DEBF2C
:101730000FBECDBFDF91CF911F910F91FF90EF9022
:10174000DF90CF90BF90AF909F908F907F906F90E1
:101750005F903F902F900895E985FA85ED54FD4FF5
:101760008081909123018923F1F020903A073090F5
:101770003B072F813885215C384F39015B8010E0B1
:10178000FC815F16D0F020913C07129F112D11248F
:10179000B101812F0E94B70A462F282F672F898514
:1017A0009A850E948B0929853A852F5F3F4F3A879A
:1017B000298732E0C30ED11CAECFF30181913F01E6
:1017C000F601A080A81ABB088180F3018781881ADE
:1017D0009908AA9C9001AB9C300D300D1124889C77
:1017E000C001899C900D900D1124820F931F0E94BF
:1017F000550A082F60913D0721E0620F08F46FEF52
:10180000F301EE0FFF1FEF53F740858996890E9481
:10181000AD0A7C019401A501B101812FED81FE810A
:1018200009951B015394182FABCFB0E0A0E0EBE17A
:10183000FCE00C9461308C01C091220182E1C89FD0
:10184000C02D112422E1D22EDC0ECD2C28E52D1541
:1018500010F498E5C92E20913D0731E0230F08F4DC
:101860002FEF30E050E040E06FEF7FEF80E090E05E
:101870000E94AE307901D0E02C2FCC1550F081E0E1
:10188000F7E5FD1508F480E0CDB7DEB7E8E00C948D
:101890007D30FE01ED54FD4F80819091230189231D
:1018A00011F140913F074150042E000C550B47FFAA
:1018B0001CC0C70160913D0721E0620F08F46FEF83
:1018C0000E94AD0AAC0160913A0770913B0780918C
:1018D0003C07F80109950E94B70A462F282F672F69
:1018E000CE010E948B092196C7CFFA01E15CF84F27
:1018F000818982130AC0FA01EE0FFF1FE15CF84FE5
:10190000818D928D8E159F05A8F241505109CFCF40
:10191000B0E0A0E0EEE8FCE00C9462307C01C09105
:10192000220182E1C89FC02D112412E11C0F012F5A
:10193000193508F008E560913D076695669521E048
:10194000620F08F46FEF80913507909136070E947F
:10195000AD0AD82ED0E0C01748F081E0183508F065
:1019600080E0CDB7DEB7E7E00C947E30FE01ED54A9
:10197000FD4F808190912301892391F060913A0776
:1019800070913B0780913C072D2D4C2FF701099555
:101990000E94B70A462F282F672FCE010E948B097D
:1019A0002196D9CFB0E0A0E0E8EDFCE00C945E30E9
:1019B0006C01C091220182E1C89FC02D112412E167
:1019C0001C0FB12E193510F038E5B32E60913D078C
:1019D0006695669580913507909136070E94AD0A0D
:1019E000F82E80E48F0D0E94210A90E8A92EA80EFF
:1019F0008F2D0E94210A20E8922E980ED0E0CB1560
:101A000048F081E0183508F080E0CDB7DEB7EBE0B4
:101A10000C947A30FE01ED54FD4F808190912301AA
:101A20008923A1F060913A0770913B0780913C07B0
:101A3000EF2C0C2F292D4A2DF60109950E94B70A8B
:101A4000462F282F672FCE010E948B092196D7CFD2
:101A5000B0E0A0E0EEE2FDE00C945C305C01C091EF
:101A6000220182E1C89FC02D112412E11C0FF12E2A
:101A7000193510F038E5F32E60913D076695809199
:101A80003507909136070E94AD0A782ED0E0CF1529
:101A900048F081E0183508F080E0CDB7DEB7EDE022
:101AA0000C947830FE01ED54FD4F8081909123011C
:101AB0008923C9F1CE01880F991F83569E4FFC01DF
:101AC000EA59FF4F2081422F4057550B6A0189592F
:101AD0009F4FFC018081282F2052330B4901449FE6
:101AE0009001459F300D300D1124889CC001899CC8
:101AF000900D900D1124820F931F0E94550A082FFC
:101B000060913A0770913B0780913C07E72C940164
:101B1000A601F50109950E94B70A462F282F672FC5
:101B2000CE010E948B092196B2CFB0E0A0E0EBE994
:101B3000FDE00C9461307C01C091220182E1C89FDC
:101B4000C02D112412E11C0FD12E193510F038E5EB
:101B5000D32E60913D0766958091350790913607A9
:101B60000E94AD0AC82ED0E0CD1548F081E01835AE
:101B700008F080E0CDB7DEB7E8E00C947D30FE01E0
:101B8000ED54FD4F808190912301892311F1CE0105
:101B9000880F991F83569E4FFC01E959FF4F208102
:101BA0002052330B8A599F4FFC0140814057550BFF
:101BB00060913A0770913B0780913C070C2DF7012B
:101BC00009950E94B70A462F282F672FCE010E9441
:101BD0008B092196C9CFF894E82FE295EF70F0E0D9
:101BE00031A1282F2F7081E090E001C0880F2A9545
:101BF000EAF7982F9095932391A392A1892B82A322
:101C0000789408959091010792FF06C0282F2871BB
:101C10002830F9F4877F846093FF06C0282F28714D
:101C20002831F1F4877E84612091020720FF06C0ED
:101C3000382F38713830D9F4877F816021FF06C092
:101C4000282F28712831D1F4877E816194FD877E09
:101C50000895282F24712430F9F68B7F8860DCCF1B
:101C6000282F2471243101F78B7E8861DDCF382F36
:101C70003171313019F78E7F8860E0CF282F2171C4
:101C8000213121F78E7E8861E1CF82389105B9F14B
:101C9000B0F48133910509F47DC048F4893291058F
:101CA00009F46DC08A32910509F47BC0089585332B
:101CB000910509F45FC08933910509F10895833EC8
:101CC0009105D9F138F4803E910529F1823E9105C4
:101CD00079F10895863E9105D9F1873E910509F481
:101CE0003EC0843E910541F52091020721FF24C0AA
:101CF0008091010784FD19C087EE90E0089520913E
:101D00000107237009F05AC02091020723FF14C075
:101D100089E290E008952091010720FD38C03091BC
:101D2000020730FF09C024FF43C090E080E008951F
:101D30002091010722FDF7CF08952091010722FD90
:101D40003AC03091020730FD39C024FFF5CFEDCF06
:101D50002091010723FFF0CF24FDE7CFCDCF2091C5
:101D6000010723FD2EC03091020731FFEECF84EE34
:101D700090E008952091010725FFDECFC9CF209183
:101D8000010725FD21C02091020723FFD5CF89E35C
:101D900090E0D2CF2091010726FFCECF8AE290E0DB
:101DA00008952091010726FFC7CF81E390E00895B1
:101DB00083EE90E0089582EE90E0089580EE90E04A
:101DC000089586EE90E0089585E390E008951F93CE
:101DD000CF93DF930E94450EEC01C11580E5D80733
:101DE000F0F5C11580E4D80708F09CC0C03ED105CD
:101DF00020F5CD3CD10508F082C0C83AD10578F471
:101E0000C53AD10508F073C0C130D10519F120974A
:101E100009F1C430D105F0F4D0E0C0E01BC0C13CF2
:101E2000D105D0F7C85AD0E0CC0FDD1FCC5CDE4F17
:101E30000990D881C02DD4640DC0C11580E2D807A7
:101E400008F0D1C0C11581E0D80708F05AC0C83EDB
:101E5000D10510F7CE01DF91CF911F910895C036C3
:101E600082E5D80718F5C03482E5D80708F06BC0C2
:101E7000C03282E5D80708F05FC0C11582E5D807F7
:101E800008F497C02C2F2695269580E2289F900174
:101E900011248C2F8370C1E0D0E002C0CC0FDD1F75
:101EA0008A95E2F7C22BD32BDD68D4CFC03A82E506
:101EB000D80760F4C03882E5D80708F459C0CF715C
:101EC000D0E0DC2FCC27C46FD06AC4CFC03C82E501
:101ED000D80708F462C0C03E82E5D80708F09CCF5E
:101EE000DC2FCC27CC27DF71C06FD06AB3CFC55AA7
:101EF000D0E0CF5CDE4FC881D0E0D064ABCFD065FE
:101F0000A9CF8D2F0E94020E182FCE0199270E9473
:101F1000450EC12FD0E0DC2FCC27CC27DF71C82B9A
:101F2000D92B98CFCE0199270E94450ECC27DF7080
:101F3000C82BD92BD06A8ECFCF71D0E0DC2FCC2725
:101F4000C16FD06A87CF2C2F26952695277080E207
:101F5000289F900111248C2F8370C1E0D0E002C033
:101F6000CC0FDD1F8A95E2F7C22BD32BDC6872CF32
:101F70002C2F26952695277080E2289F900111240A
:101F80008C2F8370C1E0D0E002C0CC0FDD1F8A959A
:101F9000E2F7C22BD32BDA685DCF8C2F8F710E94B2
:101FA000020EC82FD0E0DC2FCC27CC27DF71D06207
:101FB00051CF8C2F8F710E94020E55E0D695C79598
:101FC0005A95E1F7CF70D0E0DC2FCC27282F30E0F6
:101FD00084FF05C044E0220F331F4A95E1F7C22B6E
:101FE000D32BD06937CF8D2F8F710E94020E182FFF
:101FF000CE0199270E94450EC12FD0E0DC2FCC27BF
:10200000CC27DF71C82BD92BD2CF8091B10381119E
:102010001092B103089580959091B0039823909306
:10202000B003089520918D0390915C0356E029132D
:1020300002C080E0089530E0529FF001539FF00D00
:102040001124E35AFC4F7181761306C07081781316
:1020500003C07281741304C02F5F3F4F2770E7CF16
:1020600081E0089580918D0390915C03981301C0E5
:1020700008958F5F8770FACF292F963078F58131D8
:1020800068F590E031E1239F800D911D1124682FA8
:10209000677023E0969587952A95E1F7FC01EE0F8E
:1020A000FF1FE80FF91FE15DFC4F50E040E080E0CA
:1020B000219130E0062E02C0369527950A94E2F76A
:1020C00021703327042E01C0220F0A94EAF7822BD5
:1020D0004F5F5F4F4330510559F7089580E00895F1
:1020E000292F963098F5813188F590E031E1239FD2
:1020F000800D911D1124282F277041E001C0440F4D
:102100002A95EAF723E0969587952A95E1F7FC0151
:10211000EE0FFF1FE80FF91FE15DFC4F30E020E0FC
:1021200070E05191DF011197CB01022E02C096950C
:1021300087950A94E2F78170819585278423852706
:102140008C932F5F3F4F2330310559F708958093CB
:10215000D00308959091D00321E030E0F90101C04F
:10216000EE0F8A95EAF7D90102C0AA0FBB1F6A9544
:10217000E2F7EA2B01C0220F4A95EAF7892F8E2356
:10218000E81305C0292B822F0E94A71008952095DF
:102190002923F9CF21E030E001C0220F8A95EAF728
:1021A00020958091D00382230E94A71008959091DA
:1021B0008E038095892380938E03282F277091F4B6
:1021C000282F082E000C330B9217130659F090910C
:1021D000020792FF07C08595859585950E94CA10D4
:1021E00010928E03089521E030E001C0220F8A95FD
:1021F000EAF78091D003822B0E94A7100895809364
:10220000B2030895829590E09C01220F331F220FA4
:10221000331F2C7C95958795959587958373282BEF
:1022200030E0C901880F991F8A7A35952795257561
:10223000822B0895EEE0F1E08083618324E630E0B4
:1022400042E050E0BF0180E60E94223008959FB72F
:10225000F894109204079FBF90912B07943009F0D7
:1022600048C02091E9002F703091EC00932F9170BD
:1022700030FD90E8922B25E02093E9002091EB00BF
:1022800020FF34C02091EE0027FF30C020910307CB
:10229000222321F02091E80025FF28C01092030797
:1022A00026E03091E80035FF14C08093F100809162
:1022B000E80085FD27C08091E80080FFFCCF809179
:1022C000E8008E778093E8009F709093E90080E0AB
:1022D000089530912B07343049F43091EB0035FDEF
:1022E00005C0215041F481E0809303079F709093D3
:1022F000E9008FEF0895EFE9FFE03197F1F700C0B3
:102300000000CFCF8FB7F89421E0209304078FBF50
:10231000DBCF0F931F93CF93DF938B01EA01909153
:102320002B07943061F58093E9008FEF9091E800DE
:10233000815095FD06C095ED9A95F1F70000811149
:10234000F5CF8091E80085FF1AC00E941706811121
:1023500011C08091E80085FD06C08091E8008E776D
:102360008093E800F2CFF80181918F018093F10012
:10237000219779F78091E8008E778093E800DF91CC
:10238000CF911F910F91089543E050E0BC0184E08C
:102390000E9489110895CF93DF93EC0180910D0184
:1023A000811111C048E050E0BE0181E00E94891116
:1023B00080E2FE01A9E0B7E001900D928A95E1F775
:1023C000DF91CF9108958091010787FF05C040E21A
:1023D00084E050E0BE01EACF48E081E0FACF81E03E
:1023E0008093E00080E28093D8001092C9008FE1D2
:1023F0009EE40197F1F700C0000087E090EBDC015C
:1024000080936B0790936C07A0936D07B0936E0752
:1024100088E19CE00FB6F894A895809360000FBE09
:1024200090936000FFCF20910D01222351F1209164
:10243000010727FF26C0E62FE695E695E695EE31E3
:1024400078F4E80FF92FF11D677021E030E001C04A
:10245000220F6A95EAF72095828128232283089526
:102460008091FB0680FF19C01F926F938DE299E067
:102470009F938F930E94EF050F900F900F900F90F6
:102480000895FC01329608962191621303C0DF0182
:1024900011971C92E817F907B9F7089520910D01DB
:1024A000222349F12091010727FF25C0E62FE69559
:1024B000E695E695EE3170F4E80FF92FF11D67709F
:1024C00021E030E001C0220F6A95EAF78281822B79
:1024D000828308958091FB0680FF1EC01F926F9338
:1024E0008FE099E09F938F930E94EF050F900F90DC
:1024F0000F900F900895FC0132962FEF30E041913C
:10250000641751F02F3F19F4411101C0232F3F5F91
:102510003630A9F72F3F09F40895820F911D27FD4A
:102520009A95FC016283089580933D07909134044D
:10253000962B909334049091FB0690FF16C028E2EE
:1025400031E0662311F02AE231E01F928F933F932E
:102550002F9388EF95E09F938F930E94EF050F9044
:102560000F900F900F900F900F90089580913D075E
:1025700020E1382F321B08F430E0832F61E00E9405
:102580009412089580913D0720E1382F320F08F40E
:102590003FEF832F61E00E94941208953091390734
:1025A000337071F180933A0760933B07453B08F025
:1025B00044EB40933C0730913404322B3093340485
:1025C0003091FB0630FF1CC050E09927211119C043
:1025D00028E231E05F934F931F926F939F938F9305
:1025E0003F932F9385ED95E09F938F930E94EF0586
:1025F0008DB79EB70A960FB6F8949EBF0FBE8DBFDB
:1026000008952AE231E0E6CFE9E3F7E0438120E1F3
:10261000421B08F440E0818121E0628190E00E9449
:10262000CE120895E9E3F7E0438120E1420F08F478
:102630004FEF818121E0628190E00E94CE120895E7
:10264000E9E3F7E0628120E1621B08F460E0818148
:1026500021E0438190E00E94CE120895E9E3F7E083
:10266000628120E1620F08F46FEF818121E04381F4
:1026700090E00E94CE120895E9E3F7E0818121E025
:10268000438162818850990B0E94CE120895E9E33C
:10269000F7E0818190E021E04381628108960E9409
:1026A000CE12089590913907937051F1811129C08C
:1026B00094609093390710920C0180913404862B1A
:1026C000809334048091FB0680FF1AC02091390763
:1026D0002695269588E291E0662311F08AE291E042
:1026E0001F922F939F938F938BEB95E09F938F93E4
:1026F0000E94EF050F900F900F900F900F900F908A
:1027000008958F3110F09867D4CF880F880F982BD9
:10271000D0CF8091390786958695815009F48EE156
:1027200061E00E945213089580913907869586953D
:102730008F5F8F3108F081E061E00E9452130895AD
:1027400090913907292F237031E023279C7F922B0A
:102750009093390710920C0190913404982B909328
:1027600034049091FB0690FF14C0811113C088E2DD
:1027700091E01F922F939F938F9384E895E09F930E
:102780008F930E94EF050F900F900F900F900F9076
:102790000F9008958AE291E0ECCFCF93DF93C6E5E6
:1027A000D3E060E0CE010E9449312196C11584E05A
:1027B000D807B9F7DF91CF9108951F93CF93DF9397
:1027C000122F8430E0F46630D0F44131C0F4C42FCD
:1027D000D0E0CC0FDD1F92E2699FC00DD11D112406
:1027E0009CEC899FC00DD11D1124632FCE018696CC
:1027F0000E944931612FCE0187960E944931DF91B5
:10280000CF911F910895B0E0A0E0E9E0F4E10C94CD
:102810005F3087E7C82E87E0D82ED0E0C0E0760191
:1028200010E019C021E030E0C230D1051CF4F50100
:1028300025913491402F612F8C2F0E94DD1382E06F
:10284000A80EB11C0F5F013169F71F5F82E2E80E2D
:10285000F11C163019F0570100E0E4CF21968CEC02
:10286000C80ED11CC430D105D1F6CDB7DEB7EAE031
:102870000C947B30CF93C82F6FEF811163E282E21B
:1028800090E00E9449316FEFC11163E083E290E074
:102890000E9449316FEFC11165E084E290E00E942F
:1028A0004931CF91089580E00E943A1460E085E2BA
:1028B00090E00E9449310E9403140E94CD1381E0F0
:1028C0000E943A1408950F931F93CF93DF9384309F
:1028D00030F5663020F5413110F5C42FD0E0CC0F33
:1028E000DD1F22E2629FC00DD11D11243CEC839FAD
:1028F000C00DD11D1124CE0186960E942B31082FC8
:1029000010E0102F0027CE0187960E942B319801EE
:10291000282BC901DF91CF911F910F91089590E06D
:1029200080E0F8CF462F763040F4613130F48430C7
:1029300020F4672F0E946314089590E080E00895CA
:10294000CF92DF92FF920F931F93CF93DF936C018F
:102950000091D0038091B203082BC3E0D0E010E0D7
:10296000FC2EC8010C2E02C0959587950A94E2F7BB
:1029700080FD0CC02197A0F7F12C8F2DDF91CF9116
:102980001F910F91FF90DF90CF900895B6018C2F8B
:102990000E9492140E94E70E019761F3EECFCF934D
:1029A000DF93EC010E94A014BE010E9492140E94C9
:1029B000E70EDF91CF910895FC0183819481892BEB
:1029C00029F08081918189238F3F51F480E008951F
:1029D000843FE1F717C0883EA8F0813FB9F712C0E5
:1029E000808191810E94CF1492959F70963099F3C7
:1029F00058F4925F9F70923048F7803F19F040F78B
:102A0000883E20F781E008959A5FF4CF82E290E05B
:102A10000E942B31833289F483E290E00E942B31B3
:102A2000833059F484E290E00E942B3191E08530AC
:102A300009F090E0892F8170089580E0FCCFA4E038
:102A4000B0E0E5E2F5E10C946430F62E042F122F8D
:102A50008835910508F059C0880F991F880F991F74
:102A6000BC01695E794F44E050E0CE0101960E94BE
:102A7000FC308981282F237030E0869586954A8125
:102A8000942F9295990F990F907C692F682B842F22
:102A900086958695782F7370EFE5F1E02E9FC00143
:102AA0002F9F900D3E9F900D11248A569A4F680FCC
:102AB000791FFB01F082542F52955F704B81E42FF8
:102AC000E295E07F6E2F652B542F52955F70752F26
:102AD0007370680F791FFB010083429546954695F8
:102AE00043705C81E52FEE0FEE0F6E2F642B752F78
:102AF0007295769576957370860F971FFC011083FB
:102B00002B563A4F81E0F90180832496E5E00C943E
:102B10008030FF920F931F93CF93DF93182F062FD0
:102B2000F42ED0E0C0E02F2D402F612FCE010E9467
:102B30001F152196C835D105B1F7CDB7DEB7E5E051
:102B40000C9480300F931F93CF93DF938091950562
:102B5000882309F441C065EC8EEF0E941A1160E0F1
:102B60008DEF0E941A11D0E0C0E004EB10E0CE011E
:102B7000B8010E949A3080930E0182E1FE01EA566C
:102B8000FA4FAFE0B1E001900D928A95E1F724E6AB
:102B900030E043E150E06EE071E080E60E942230D8
:102BA000892BD1F46296C63581E0D807E1F482EA38
:102BB00080930E0189E0ECEEF6E0AFE0B1E0019029
:102BC0000D928A95E1F724E630E04AE050E06EE0AD
:102BD00071E080E60E94223010929505DF91CF913E
:102BE0001F910F910895C43BD10509F665EC8EEF56
:102BF0000E941A1161E08DEF0E941A11B8CFA4E073
:102C0000B0E0E5E0F6E10C945F300E94822F65ECC5
:102C10008EEF0E941A1164E08DEF0E941A1161E09C
:102C200080E00E941A116FEF81E00E941A1167E79D
:102C300082E00E941A118FE39CE90197F1F700C02E
:102C4000000007E116E027E7E22E27E0F22E3FE53D
:102C5000C32EDD24D394BB24BA94AA24A39444E0C5
:102C600050E0B801CE0101960E94FC308981282FE6
:102C7000237030E0869586954A81942F9295990F1E
:102C8000990F907C692F682B842F86958695782FD5
:102C900073702C9DC0012D9D900D3C9D900D1124B5
:102CA0008B5C9B4F680F791FFB01B082542F5295AC
:102CB0005F704B81E42FE295E07F6E2F652B542FE0
:102CC00052955F70752F7370680F791FFB01B0828A
:102CD00042954695469543705C81E52FEE0FEE0FC9
:102CE0006E2F642B752F7295769576957370860F7F
:102CF000971FFC01B0822C563A4FF901A0820C5F5D
:102D00001F4FE016F10609F0AACF65EC8EEF0E9486
:102D10001A1162E08DEF0E941A1195E3E92E94E0FA
:102D2000F92E10E0F70161917F01812F0E941A11A5
:102D30001F5F143BB9F765EC8EEF0E941A1163E038
:102D40008DEF0E941A1189EEE82E84E0F82E10E033
:102D5000F70161917F01812F0E941A111F5F1B3AB9
:102D6000B9F7109294052496EAE00C947B3046E083
:102D700050E06CE170E089E397E00E9439311092F5
:102D8000340408958091FB0680FF08C080E695E03A
:102D90009F938F930E94EF050F900F908DE180938A
:102DA00039078091250190912601A09127018093F8
:102DB0003A0790933B07A0933C078FE780933D072A
:102DC0008FEF80933E070E94B7160895B0E0A0E011
:102DD000ECEEF6E10C946130182F80910B01811319
:102DE00023C090913907937020910A0130E081E06F
:102DF0009217130609F480E081708093240180917A
:102E00003E0790912301981739F08093230140E009
:102E100060E080E00E9488091F3190F4E12FF0E02B
:102E2000E159FE4C0C94CD3081E0E6CF8091240135
:102E3000882309F4C2C040E060E080E00E94880975
:102E400080E0BBC0C091220182E1C89FC02D112447
:102E500002E10C0FF02E093510F068E5F62E6091B6
:102E60003A0770913B0780913C070E94B70AE62E13
:102E7000D72EC82ED0E0CF1528F081E0083508F411
:102E80009CC0DECFFE01ED54FD4F80819091230167
:102E9000892331F02C2D4E2D6D2DCE010E948B09F2
:102EA0002196E9CFC091220182E1C89FC02D112453
:102EB00002E10C0FE02E093510F058E5E52ED09018
:102EC0003B07C0903C0720913D0740E4F42E3F2D86
:102ED000329F312D1124F32ED0E0CE1570F6FE0175
:102EE000ED54FD4F8081909123018923D9F0FE019B
:102EF000EE0FFF1FED5FFD4F6081F69EB0011124C4
:102F000035E0759567953A95E1F780913A07680F36
:102F10007D2D8C2D0E94B70A462F282F672FCE01BA
:102F20000E948B092196D9CFC091220182E1C89FCE
:102F3000C02D112402E10C0FF02E093510F098E598
:102F4000F92EE0903A07D0913B07D0903C07609172
:102F50003D07669566956695809135079091360791
:102F60000E94AD0A0E94210A805887FD8195880F32
:102F7000282F3D2D239F212D1124822F6E2D7D2F53
:102F80000E94B70AE62ED72EC82ED0E0CF1508F043
:102F900074CFFE01ED54FD4F808190912301892370
:102FA00031F02C2D4E2D6D2DCE010E948B092196D6
:102FB000EDCF8EE599E00E94880C909122019F5FF1
:102FC0009093220181110CC082E080930C018091CA
:102FD0002401811105C0111103C083E080930C010D
:102FE000CDB7DEB7E8E00C947D3082E09AE00E9435
:102FF000950DE3CF86EE99E00E94280DDECF8CE59B
:1030000099E0D9CF83E599E0D6CF8AE499E0D3CF90
:1030100081E399E0D0CF83E299E0EECF85E89AE0B2
:10302000E6CF85ED99E0E3CF81EC99E0E5CF86EF3F
:1030300098E00E94D20CC1CF88EC98E0FACF81E9E9
:1030400098E0F7CF80E898E0B6CF9091220102E1B6
:10305000909F000D112440913507509136076091E3
:103060003707709138078091020490910304A09172
:103070000404B091050484179507A607B70708F064
:10308000FCCE0E94400A98E5899FE0011124CD2FD3
:10309000DD27FE01ED54FD4F8081909123018923AE
:1030A00009F4EBCE0E94400A20E040E060E081FDA0
:1030B00013C00E94400AF82E0E94400A20E8829F16
:1030C000C00111247FE7790F6F2D80913C070E948A
:1030D000B70A462F282F672FCE010E948B09209117
:1030E0003D0730E1230F08F42FEF60E1822F90E0DD
:1030F0000E94AD0ABC0184EF91E00E9443308091B0
:10310000350790913607A0913707B0913807860FA1
:10311000971FA11DB11D8093020490930304A093F7
:103120000404B0930504A9CE89E798E00E94150C29
:1031300044CF83E798E0FACF6AE578E080E00AC000
:1031400080913F0721E0382F321B08F430E0832FB5
:103150006FE178E00E944B0B30CF6FE178E0EECF6B
:1031600080913F0721E0382F321B08F430E0832F95
:103170006DEE77E0EFCF6DEE77E0E0CF80913F0727
:1031800021E0382F321B08F430E0832F65ED77E023
:10319000E1CF65ED77E0D2CF80913F0721E0382F76
:1031A000321B08F430E0832F6FEB77E0D3CF6FEB67
:1031B00077E0C4CF4F925F926F927F928F929F92EF
:1031C000AF92BF92CF92DF92EF92FF92CF93C090D7
:1031D0002F04D0903004E0903104F09032048FB787
:1031E000F8944090FD065090FE066090FF067090A7
:1031F00000078FBF530142018C189D08AE08BF081D
:103200000E94560760932F0470933004809331041A
:1032100090933204A0910604E6E0F4E02A2F30E017
:103220004FEFC40ED41EE11CF11CC418D508E608EB
:10323000F708A3132AC02093060420913304C0E0AA
:10324000211108C020913907C22FC37019F0C22F75
:10325000C695C69520910C01213009F440C0222367
:1032600039F1223009F44CC0233009F454C0CF9115
:10327000FF90EF90DF90CF90BF90AF909F908F9096
:103280007F906F905F904F900895418D528D2A01ED
:10329000712C612CC414D504E604F70420F42150E9
:1032A0003F5F3296C6CF480D591D528F418FF8CFE0
:1032B0001092220160933507709336078093370789
:1032C0009093380789E2E6E0F4E0AFE3B7E00190DD
:1032D0000D928A95E1F781E080930C01C8CF8C2F85
:1032E0000E94E616CC2319F20E94AC0781FFBFCFE3
:1032F0002FEF4FEF6FEF82E390E00E948B09B7CF83
:10330000C0930B0180913907837080930A010E945A
:10331000A21583E0E1CF8091340481110E94B71699
:103320004091350750913607609137077091380703
:103330002FB7F8948091FD069091FE06A091FF06AC
:10334000B09100072FBF841B950BA60BB70B4097BE
:10335000A105B10508F48BCF10920C0188CFCF9353
:10336000C82F8091020782FB992790F99C17F9F0EA
:10337000C0FB82F9809302076091010770910207F8
:1033800084E090E00E94673182E00E94D710809133
:10339000FB0680FF0CC01F92CF9380E792E09F93C3
:1033A0008F930E94EF050F900F900F900F90CF9189
:1033B000089590E080E00E943331873E9E4F19F4DB
:1033C0000E940615089580E008950F931F93CF93F0
:1033D000DF938091B0039091AF03892B80930E030C
:1033E0009091B1039923B1F0892B80930E038091C2
:1033F0000D01882309F46FC08091010787FF6BC01E
:103400008EE1E0E1F3E090E0815008F066C09111B8
:103410000E94051040E250E06FE873E08EE093E018
:103420000E940531892B09F451C080E2EEE0F3E0FF
:10343000AFE8B3E001900D928A95E1F7E091F706CD
:10344000F091F806309709F441C080910D0188236E
:1034500059F08091010787FF07C080910E03809388
:103460000F0386E080930E030280F381E02D8EE04F
:1034700093E009958091FB0682FF28C080FF04C07D
:103480008DE892E00E945605D0E0C0E007E812E027
:103490008091FB0680FF0EC0FE01E25FFC4F808141
:1034A0001F928F931F930F930E94EF050F900F9021
:1034B0000F900F902196C830D10551F78091FB06EF
:1034C00080FF04C085E892E00E945605DF91CF910D
:1034D0001F910F91089586E094CF2191222309F442
:1034E00093CF9F5F91CF1092B00380910D01E0E1E7
:1034F000F3E08823B1F08091010787FF12C08EE1CD
:10350000DF011D928A95E9F790E080E00E9487072D
:1035100090E080E00E9462071092AF030E94E519DC
:10352000089586E0EDCFAAE2B0E0E9E9FAE10C9473
:1035300066308DE297E02091F100DC012D93CD0102
:10354000B7E085339B07B9F780912E07833009F4E4
:1035500072C0B8F4813009F449C0823009F4B3C0B4
:103560008091E80083FF91C280912D0790912E07F2
:103570009A3008F08AC2E92FF0E0E257FE4C0C9432
:10358000CD308A3009F48EC08B3009F471C0893097
:1035900039F780912D07813219F780913107909189
:1035A0003207009711F00297D9F68091E800877FE3
:1035B0008093E8008091E80082FF38C09091F3008A
:1035C0008091F200029731F48091F100813011F086
:1035D000863021F48091F100809308078091E80003
:1035E0008B778093E8000E944806BACF80912D0720
:1035F000813A09F0B5CF8091E800877F8093E80099
:103600008091310790913207892B61F460E289E063
:1036100097E070E00E94F4068091E8008B77809339
:10362000E8009ECF60E090E080E0F3CF80912B0730
:103630008111C0CF95CF80912D07813A09F090CFAD
:103640008091310790913207892B09F089CF8091C1
:10365000E800877F8093E8008091E80080FFFCCF3E
:1036600080910D018093F1008091E8008E77B9CFB1
:1036700080912D07813209F073CF809131079091AD
:103680003207892B09F06CCF8091E800877F809307
:10369000E8000E94480680912F0780930D010E9448
:1036A000731A5ECF80912D07813209F059CF809136
:1036B000E800877F8093E8000E94480680913007E9
:1036C000809307074DCF80912D07813A09F048CFAD
:1036D0008091E800877F8093E8008091E80080FF78
:1036E000FCCF80910707BECF803899F0823809F06F
:1036F000CCC1809131078F70873008F0C6C18093AC
:10370000E9008091EB0085FB882780F91092E900A1
:1037100006C08091290790912A07911182609091AB
:10372000E800977F9093E8008093F1001092F100F9
:103730008091E8008E77A5C1882309F493C1823077
:1037400009F0A3C180912F07811196C180913107A3
:103750008F702FEF280F263008F097C18093E90073
:103760002091EB0020FF88C1933031F48091EB0071
:1037700080628093EB0080C19091EB009061909308
:10378000EB0021E030E001C0220F8A95EAF7209398
:10379000EA001092EA008091EB008860EACF811184
:1037A00074C110912F071F778091E3008078812BDF
:1037B0008093E3008091E800877F8093E8000E9477
:1037C00048068091E80080FFFCCF8091E30080688C
:1037D0008093E30082E0111183E080932B0755C1B1
:1037E0008058823008F051C120912F073091300766
:1037F0002C3DE3E03E07A1F583E08A838AE28983DA
:103800004FB7F894DE01139620E03EE051E2E32F3B
:10381000F0E050935700E49120FF03C0E295EF7071
:103820003F5FEF708E2F90E0EA30C0F0C7968D9327
:103830009D932F5F243159F74FBF8091E800877F18
:103840008093E8006AE270E0CE0101960E94F406DF
:103850008091E8008B778093E80017C1C096E7CF8E
:103860008091310790913207432F552743305105FE
:1038700009F44AC078F54130510509F47AC08BE764
:1038800090E0EFE5F9E04230510509F0FEC02091EB
:10389000E800277F2093E800209133073091340718
:1038A0008217930708F49C0140E02115310509F0C7
:1038B00065C0411163C08091E80082FDC9CF80914D
:1038C0002B07882329F2853019F28091E80083FFC5
:1038D000F2CFBECF4132510509F43CC0423251050E
:1038E00009F0D3C08430910508F0CFC0FC01EE0F81
:1038F000FF1FE357FE4F0190F081E02D87579E4F49
:10390000DC018C9190E01AC0332721303105D1F0D1
:103910002115310561F02230310509F0B6C0ECEE19
:10392000F9E0E4918E2F90E0ECEEF9E007C0ECE1D5
:10393000FAE0E4918E2F90E0ECE1FAE0009709F4D0
:10394000A4C0A5CFE4E0FAE0E4918E2F90E0E4E09B
:10395000FAE0F4CF8430910508F097C0880F991FE2
:10396000FC01EB56FE4F0190F081E02D89E090E0E4
:103970008ECF82E190E0EAEDF9E089CF80912B07CC
:10398000882309F465CF853009F462CF8091E8007F
:1039900083FD5ECF8091E80082FD8DCF8091E800AD
:1039A00080FF83CF9091F3008091F20021153105C3
:1039B00019F08830910550F041E0089709F040E097
:1039C0008091E8008E778093E8006FCF4491409318
:1039D000F1003196215031090196E8CF803809F085
:1039E00054C08091E800877F8093E80080912C0785
:1039F0008093F1009DCE811148C010912F071230A5
:103A000008F043C08091E800877F8093E80010931E
:103A10002C070E944806112311F084E005C0809114
:103A2000E30087FDFACF81E080932B0742E061EC51
:103A300081E00E94670642E261EC84E00E94670632
:103A400042E261EC82E00E94670642E260EC83E0C1
:103A50000E94670642E261EC85E00E946706809161
:103A60002B0713C080912F07813079F481E09330C8
:103A700009F080E080932A071092E9008091E80025
:103A8000877F8093E8000E9448068091E80083FFCA
:103A90000AC08091E800877F8093E8008091EB0066
:103AA00080628093EB00AA96E3E00C9482300E943F
:103AB000731A2FEF84E39CE0215080409040E1F79F
:103AC00000C0000088E19CE00FB6F894A8958093B0
:103AD00060000FBE90936000FFCF882321F00E940A
:103AE0000B100E94E5190895882339F09091B003D6
:103AF000982B9093B0030E94E5190895882351F103
:103B00009CEF980F913A40F4682F8EE093E00E946A
:103B100013120E94E519089590E2980F983050F41E
:103B2000877091E001C0990F8A95EAF7892F0E946A
:103B30000B10EFCF9BE5980F933028F490E080E0D6
:103B40000E9487070895885A8B3120F490E080E026
:103B50000E9462070895CF93C82F8823D9F18CEF74
:103B60008C0F813AC8F580910D01882311F1809165
:103B7000010787FF1EC0EC2FE695E695E695F0E07D
:103B8000E25FFC4F828190E04C2F477021E030E0F3
:103B900002C0220F331F4A95E2F782239323892B19
:103BA00091F06C2F8EE093E00E9413120E94E519B1
:103BB0000AC0E0E1F3E086E193E02191C21789F3C6
:103BC0008E179F07D1F76C2F8EE093E00E944E1264
:103BD0000E94E519CF91089580E28C0F883068F437
:103BE000C77021E030E001C0220FCA95EAF780914A
:103BF000B003822B8093B003EBCFEBE5EC0FE33007
:103C000040F4F0E0EF5CFE4F808190E00E94870777
:103C1000E1CFC85ACB31F0F6EC2FF0E0EE0FFF1FEA
:103C2000EC5CFE4F808191810E946207D3CF1F938D
:103C3000CF93DF93182FD0E0C0E0893311F4C0E5B3
:103C4000D0E0812F0E94AB1D209739F4812F0E9474
:103C50007E1DDF91CF911F9108958FE99FE001971D
:103C6000F1F700C000002197EFCF67EE7EEF90E004
:103C700080E00E94673160E082E090E00E9449317C
:103C800060E083E090E00E9449311092B20360E06E
:103C900074E184E090E00E94673160E086E090E0AB
:103CA0000E9449316FEF87E090E00E94493140E087
:103CB00050E0BA0188E090E00E945B3160E08DE066
:103CC00090E00E94493140E050E0BA0188E190E084
:103CD0000E945B3160E087E190E00E94493140E062
:103CE00050E0BA018CE190E00E945B3170E060E04E
:103CF00080E290E00E94673140E050E0BA0188E144
:103D000090E00E945B3180E00E943A140E945314BC
:103D100040E050E0BA018FE090E00E945B3140E06B
:103D200050E0BA0183E190E00E945B3108951F9258
:103D30000F920FB60F9211242F933F934F935F93DF
:103D40006F937F938F939F93AF93BF93CF93DF93A3
:103D5000EF93FF93D091E900DF708091EC00C82FC2
:103D6000C17080FDC0E81092E9008091F000877F6B
:103D70008093F00078940E94931A1092E900809149
:103D8000F00088608093F000CD2BCF70C093E900E5
:103D9000FF91EF91DF91CF91BF91AF919F918F9163
:103DA0007F916F915F914F913F912F910F900FBE37
:103DB0000F901F9018951F920F920FB60F9211241B
:103DC0002F933F934F935F936F937F938F939F9323
:103DD000AF93BF93EF93FF938091E10082FF15C0F3
:103DE0008091E20082FF11C08091E1008B7F80937F
:103DF000E100209105072F5F822F62E30E948E3041
:103E0000992309F4C0C0209305078091DA0080FF50
:103E100028C08091D80080FF24C08091DA008E7F76
:103E20008093DA008091D90080FFE3C080E189BDF2
:103E300082E189BD09B400FEFDCF81E080932B07AC
:103E40008BE499E00E94560580910607811109C014
:103E50000E94F8050E9499068091E2008460809398
:103E6000E2008091E10080FF1BC08091E20080FFB2
:103E700017C08091E2008E7F8093E2008091E20083
:103E800080618093E2008091D80080628093D800A6
:103E900019BC85E080932B0783E599E00E945605C5
:103EA0008091E10084FF2FC08091E20084FF2BC04D
:103EB00080E189BD82E189BD89B5982F917080FF2D
:103EC000FBCF8091D8008F7D8093D8008091E10056
:103ED0008F7E8093E1008091E2008F7E8093E200EC
:103EE0008091E20081608093E20080912C0788231A
:103EF00009F489C084E080932B0787E599E00E944C
:103F0000560580912B078091E10083FF2BC08091A3
:103F1000E20083FF27C08091E100877F8093E1006A
:103F200082E080932B0710922C078091E1008E7F16
:103F30008093E1008091E2008E7F8093E200809187
:103F4000E20080618093E20042E060E080E00E9455
:103F500067068091F00088608093F0008BE599E01F
:103F60000E945605FF91EF91BF91AF919F918F9164
:103F70007F916F915F914F913F912F910F900FBE65
:103F80000F901F90189510920507809104078823C1
:103F900009F43BCF80912B078430C1F49091E90064
:103FA0009F702091EC00822F817020FD80E8892B8A
:103FB00095E09093E9009091EB0090FF04C0909100
:103FC000EE0097FD08C08F708093E90010920407FF
:103FD0001CCF1092F1009091E80095FDFACF9091DE
:103FE000E80090FFF0CF9091E8009E779093E80072
:103FF000EACF19BC10922B078FE499E00E94560576
:10400000109206072ECF8091E30087FD93E09093F6
:104010002B0773CF78941F921FB61F9211248F9392
:104020009F93AF93BF938091FD069091FE06A09160
:10403000FF06B09100070196A11DB11D8093FD06FA
:104040009093FE06A093FF06B0930007BF91AF9137
:104050009F918F911F901FBE1F9018959C014FB785
:10406000F8948091FD069091FE06A091FF06B09114
:1040700000074FBF821B930B08952FB7F8948091D0
:10408000FD069091FE06A091FF06B09100072FBF9C
:1040900008950F931F93CF93DF93C62FD42F022F32
:1040A000FC0182818823A9F060936A070E943D2069
:1040B0009093690780936807C77081E001C0880FFB
:1040C000CA95EAF70E94741DDF91CF911F910F915D
:1040D000089580916A07681332C0809168079091B3
:1040E00069070E942E20883C910548F510E21D0FBB
:1040F000CD17B9F080E28C0F883040F4C77081E0B2
:1041000001C0880FCA95EAF70E946D1D183048F467
:1041100081E09D2F977001C0880F9A95EAF70E9461
:10412000741D802F0E94171E183070F6D77081E022
:1041300001C0880FDA95EAF70E946D1DC5CFC770E0
:1041400081E001C0880FCA95EAF7F6CFA8E0B0E099
:10415000ECEAF0E20C9459308C01DC0113968D915D
:104160009C911497892B39F08C9111969C918923FD
:104170008F3F09F01BC52896E0E10C9475300E9432
:10418000A014F82E682F89819A810E94701069818D
:104190007A818F2D0E9492147C01F80182818823FC
:1041A00009F43AC1C70197578038910508F066C5F0
:1041B000FFE0FE1508F489C08FEF93E00E942B31D9
:1041C000811183C066E5A62E63E0B62EE11047C0DC
:1041D000FE01339686E0DF011D928A95E9F75AE0E9
:1041E000452E7501BFEFEB1AFB0AC5010E942B316A
:1041F00089831A82882309F468C0813009F077C066
:104200006501E2E0CE0ED11CC7010E942B318A83EA
:10421000882309F45AC09FEF980F933070F5F3E0AC
:10422000AF0EB11CC6010E942B318B83882309F489
:104230004CC01C82DE0111967D01F70120812223F2
:1042400081F2213009F093C091818281913009F08F
:1042500050C0F2E0EF0EF11C0E94171E51C0A114D5
:1042600024E0B20691F1C5010E942B31811101C0F9
:10427000EA943FEFA31AB30AA9CF56018430D1F6CE
:1042800042E0E42EF12C56012FEFA21AB20AC60129
:104290000E942B31E1E0F0E0EC0FFD1FEE0DFF1D61
:1042A0008083882391F08C3741F4E2E0F0E0EC0F5A
:1042B000FD1FEE0DFF1D1082BDCF3FEFE31AF30A85
:1042C000650187E0E816F104F1F680918E038770AE
:1042D00009F451CFF8018281882309F44CCF8091F1
:1042E000020782FF48CF82E00E94D71044CF5701D7
:1042F000A1CF923049F422E0E20EF11C0E94AB1DE6
:10430000EFEFEE1AFE0A99CF933031F432E0E30E6C
:10431000F11C0E947E1DF4CF943021F08FEFE81A3B
:10432000F80AEECF92E0E90EF11C30E020E0B70190
:104330006F5F7F4FD70111964C918053990B8A3054
:10434000910550F021503109D8F2EFE9FFE03197A3
:10435000F1F700C00000F6CF429EF001439EF00D41
:1043600011249C012E0F3F1F842F7B01E0CFE22FF1
:10437000F0E0E353FE4F5490822F86958695869504
:1043800090E0FC01E354FE4F64902770712C022EE4
:1043900002C0759467940A94E2F731E063227724AF
:1043A000FC01E355FE4F8490912C022E02C095949F
:1043B00087940A94E2F7A1E08A229924FC01E3564B
:1043C000FE4FC490D12C02C0D594C7942A95E2F731
:1043D000B1E0CB22DD246114710419F081EE0E945A
:1043E000AB1D8114910419F086EE0E94AB1D852D42
:1043F0000E94171E8114910419F086EE0E947E1D02
:104400006114710419F081EE0E947E1DC114D10463
:1044100009F476CF8CE220CFF701E851FC47E73072
:10442000F10508F017C4E856FE4C0C94CD3026E296
:1044300041EE61EEC8010E94492047CF27E245EED8
:1044400065EEF8CF26E241EE60EEF4CF27E245EECE
:1044500064EEF0CF26E241EE62EEECCF27E245EECD
:1044600066EEE8CF28E241E0EBCF80910107816062
:104470008093010795C080910207886080930207AE
:104480008FC0809101078260F3CF80910107846023
:10449000EFCF809101078860EBCF809102078160A8
:1044A000EDCF809102078260E9CF809101078061A2
:1044B000DFCF809101078062DBCF809101078064AC
:1044C000D7CF0E94731A809101078068D1CF809165
:1044D00001078C60CDCF809102078360CFCF8091A0
:1044E00001078E7FC5CF80910207877FC7CF80915C
:1044F00001078D7FBDCF809101078B7FB9CF809160
:104500000107877FB5CF809102078E7FB7CF80915B
:1045100002078D7FB3CF809101078F7EA9CF809155
:1045200001078F7DA5CF809101078F7BA1CF0E94CE
:10453000731A809101078F779BCF80910107837F4A
:1045400097CF809102078C7F99CF8091010782FBE2
:10455000992790F921E0922790FB82F990FB83F94B
:1045600087CF80910207982F909591708E7F892B2D
:1045700090FB81F983CF90910107892F8F7B96FF64
:10458000806476CF0E94731A90910107892F97FB60
:1045900087F980586DCF61E08EE090E00E9449314C
:1045A000609101077091020784E090E00E946731FA
:1045B0000E94731A8ACE60E0EFCF90910107892F95
:1045C0008F7E94FF806154CF90910107892F8E7F59
:1045D00090FF81604DCF90910207892F877F93FFD5
:1045E00088604CCF80912E0369E2811165E38EE0F3
:1045F00093E00E9413122BC3F7E7EF16FCE7FF06C8
:1046000009F0E7C281E00E94F31043E062E081E03C
:104610000E94AA105ACE81E00E94A01356CE49E80B
:1046200053E164E973E10E94B9074FCE44E953E1D5
:1046300069E873E1F8CF4CE353E167E473E1F3CF4A
:1046400047E453E16CE373E1EECF40E253E16EE205
:1046500073E1E9CF4EE253E160E273E1E4CF44E07D
:1046600053E162E173E1DFCF42E153E164E073E1E2
:10467000DACF46EB52E162EC72E1D5CF42EC52E187
:1046800066EB72E1D0CF61E081E00E9452131DCE53
:1046900061E083E0FACF61E088E0F7CF61E08DE090
:1046A000F4CF27E7E2162CE7F20609F456C038E704
:1046B000E3163CE7F30609F454C0D80112968C9136
:1046C0001297ED90FC90882309F485C0C7010E94E1
:1046D000A014D82E682FC7010E947010B7018D2D2D
:1046E0000E9492140E94E70E7C01882EF801D2806D
:1046F000B580B2943FE0B32280918E038770F1F0D1
:10470000AD2CDD20E1F08F2D807F803451F080E2F0
:104710008E0D883098F0B11004C08F2D807E8032CD
:1047200069F08091020782FF09C082E00E94D710E1
:1047300080918E038770AA24A3948111A12C9F2CB1
:1047400092942FE09222FBE0F91508F4B6C0E92D0F
:10475000F0E0E156FE4C0C94CD3081E00E94CA108E
:1047600054CF82E0FBCFFBE5EF16FCE7FF0689F1B3
:104770002CE5E2162CE7F20611F13AE5E3163CE7E8
:10478000F30609F09ACF81E021C09091FB06892FB2
:104790008E7F90FF81608093FB0680FF05C08FE5D0
:1047A00092E00E94560591CD8DE492E0FACF6FEF32
:1047B0007FEF90E080E00E9467310E94571D80915A
:1047C000020782FB882780F991E089270E94AF19B0
:1047D00074CF80E0FBCFC7010E943C10D82E7ECF63
:1047E0002F2D2F70C22E8F2D807F19F0C29490EF45
:1047F000C922DD20B9F0CC2069F080E28E0D88302E
:1048000010F0811009C08091B003C82AC092B00393
:104810000E94E5198E2D4FC08091AF03C82AC09227
:10482000AF03F6CF8E2D0E947E1DCC2009F445C02B
:1048300080E28E0D883010F0811004C08C2D0E9413
:104840000B1006C0C0948091AF03C822C092AF0382
:104850000E94E51932C03F2D3F70C32E8F2D807FFF
:10486000803219F0C29480EFC8228820A1F081E044
:10487000881609F46FC0DD2009F479C0BB2009F463
:104880006FC0D80115968C91159780FFC3CF8F709C
:1048900015968C9365C02091020722FD34C0DD205F
:1048A00061F1CC2039F08091B003C82AC092B003E6
:1048B0000E94E51980E00E94AB1DA92DA850BB0BFA
:1048C000149710F40E94AC07AA2009F454CC8091EC
:1048D0008E0380FD50CCF8011282859585958595D3
:1048E0000E94F310C8010E94A62080918E03859536
:1048F000859585950E94CA103ECC80E00E947E1D61
:10490000CC20D9F29BCFDD2099F09091B103892F73
:104910008C29B11003C00E94741DCFCFA1E0BA1240
:10492000FACF22FFCACF981741F28093B103C5CFC7
:10493000B11006C00E9405108C2D0E946D1DBDCFC8
:10494000B1E0BB1609F4B9CF8C2D0E946D1D0E94F9
:104950000510B3CFDD2031F0E5E0EB1508F4ADCF65
:104960008C2DD9CFF4E0FB1508F4A7CFE5CFBB2001
:1049700019F3B9E38B1213C1EFEFF7EE23E0E15027
:10498000F0402040E1F700C0000009C18F2D86955E
:104990008695837061F0813009F08FCFC7019370E5
:1049A000D11002C080E090E00E94620786CFC7016C
:1049B0009370D11002C080E090E00E9487077DCF05
:1049C0008F2D837091F5D11078CF4E2D429546955D
:1049D0004770440F440F8E2D8F70042E01C0880F36
:1049E0000A94EAF72E2D2071E4FE07C02FE030E094
:1049F00001C0220F4A95EAF720953F2D369536954E
:104A00003370323069F050F44091B203313029F004
:104A1000822B84230E94FF1050CF842B822BFACF4D
:104A2000282B8091B2038227F5CF8695DD2011F0E7
:104A30008F2D8170882309F440CF4E2D42954695E5
:104A40004770440F440F8E2D8F70042E01C0880FC5
:104A50000A94EAF72E2D2071E4FE07C02FE030E023
:104A600001C0220F4A95EAF720953F2D36953695DD
:104A70003370323069F050F44091D003313029F076
:104A8000822B84230E94A71018CF842B822BFACF6D
:104A9000282B8091D0038227F5CF3F2D3F70F32E36
:104AA000DD2029F0832F0E94F3108E2D34CF8E2D20
:104AB0000E946D1D8F2D0E94CA10FFCE8E2D92EF89
:104AC0008916B1F1981570F0A0EF8A16D1F0B1EF08
:104AD0008B1691F0DD2009F45DC0B1109BCE8F2DB7
:104AE0008F712AC0E3EF8E1651F1F4EF8F12F2CFDF
:104AF0008091020782FD2FC08F2D8F71DD20D9F2AA
:104B00001BC0DD2081F024E02B1508F4D6CE2F2D1C
:104B10002F7181E090E001C0880F2A95EAF790910B
:104B2000D0038927AFCF35E03B1508F4C6CEEFCFD1
:104B30008F2D8F71D110BFCF0E94F310BECE80E0B9
:104B4000DD2009F49FCF9F2D9F7181E001C0880F68
:104B50009A95EAF797CFDD2091F08F2D8F71F82E7F
:104B60000E94F3108091020782FF07C0A8E0FA9E1E
:104B7000C0011124836080938E038F2DDDCF81E0EF
:104B80000E94D710B1E0BB1508F097CE82E00E94DA
:104B9000D71093CEBB2039F0893309F4EDCE8E2D9A
:104BA0000E947E1D8ACE8F2D8F7185CF85E0F80102
:104BB000DE01119601900D928A95E1F7D8011296C7
:104BC0002C9189819A812111DACA0E943C10F82E19
:104BD000DECA82E0B8E7EB16BCE7FB0609F413CDAA
:104BE00083E0E8168CE7F80609F4E1CD08F0BBCDC8
:104BF000A1E0EA16ACE7FA0609F4DFCD08F0C5CD6E
:104C0000E114ECE7FE0609F058CD0E94731A8FEF0D
:104C100094E3ACE081509040A040E1F700C0000078
:104C20000E94EF11E6E1EE16ECE7FE0609F0E4CC97
:104C30008091B0038A7A91E009F490E090932E037A
:104C400069E2811165E38EE093E00E944E120E94BA
:104C5000E5193BCBF6E1EF16FCE7FF0609F4C2CC01
:104C60008091B0038272F701E052F847E531F10517
:104C700008F017CDE555FE4C0C94CD30F701E85106
:104C8000FC47E730F10508F4CECB10926A07C70164
:104C90009057839738F684E090E00E9433319093E8
:104CA000020780930107F701E150F047E232F10576
:104CB00008F0DBCBE054FE4C0C94CD301F93CF9327
:104CC000DF9380915B03807F09F04BC08091580394
:104CD000882309F446C080918D03C0915C03409104
:104CE0005603509157036091590370915A03D42F82
:104CF000D52316E0C817A9F190E061157105A9F157
:104D0000DF3F99F1189FF001199FF00D1124DF0189
:104D1000A35ABC4F11962C911197251326C02C91A4
:104D2000241323C012962C91129721111EC01396A2
:104D30002D913C91261B370B283C3105B0F4809116
:104D40005B038F70806180935B03EE59FC4F808121
:104D50008F708061808386E593E00E94A6200E9488
:104D60003210DF91CF911F91089501968770C2CFC5
:104D7000A1E1B0E0EEEBF6E20C945D308C0185E051
:104D8000F801DE011D9601900D928A95E1F7F80178
:104D9000E28086E5882E83E0982E40915903509159
:104DA0005A034115510509F430C1909156032091E1
:104DB0005703892F82238F3F09F427C1D080C180F8
:104DC000A380B480F0905803B501641B750BFF20DD
:104DD00009F4E7C080915B03382F307F683C710590
:104DE00008F0ABC0311178C0FE2C2C1114C09D11FD
:104DF00012C0E11010C08F70806180935B03C4010A
:104E00000E94A62080915B03F80185838F2D619617
:104E1000ECE00C947930A114B104C9F18D2D8C21F2
:104E20008F3FA9F181E08E2580FF05C04E2D6C2DAE
:104E30008D2D0E941210A114B10459F18D2D8C21D9
:104E40008F3F39F181E08E25F82FF170BF2E80FF62
:104E500039C04E2D6C2D8D2D0E941210A82E81115F
:104E600031C0DD86CE868D859E850E94CF14292F88
:104E700022952F70243078F49F702230A8F0992367
:104E8000B9F0F8019581907F99F4FA2CBFCF80E0BA
:104E9000CBCF80E0D9CF2A5F2F70223068F0C801D5
:104EA0000E94A620AB2CF1CF992311F0882369F33F
:104EB000805E883050F3F3CF803F38F3815F8330DA
:104EC00070F7E3CFEE2009F4A1CF80915B038160FE
:104ED00080935B03F12C9ACF2C1105C09D1103C068
:104EE000EE2009F477C0C8010E94DC14882309F180
:104EF000EE20F9F080915B03803270F02091560330
:104F00003091570338872F831986BB86AA868C87F2
:104F1000CE0107960E94A62086E0F801A6E5B3E040
:104F200001900D928A95E1F70E945E26FF24F3948A
:104F30006DCFC8010E94A620F9CF31110AC086E5C5
:104F400093E00E94A62086E0F40111928A95E9F789
:104F5000C1CF2C110EC09D110CC0E1100AC0858379
:104F6000C8010E94A62086E0F40111928A95E9F713
:104F70004DCFC8010E94DC148823D9F2EE20C9F27B
:104F800080915B03803240F22091560330915703A9
:104F90003A8329831B82BD82AC828E83CE01019627
:104FA000B9CF683C7105F8F6FE2CEE2011F22C11F9
:104FB0001EC09D111CC080915B0380FD0FC0982F07
:104FC000907F61F08583903F31F0982F907F905FC4
:104FD0008F70892B8583C8010E94A62086E0F80186
:104FE000A6E5B3E001900D928A95E1F70FCFC801D5
:104FF0000E94DC14811190CF80915B0381608093CB
:105000005B03C8010E94A62001CFEE2009F491CFD6
:10501000C8010E94DC14F82E882309F48ACF86E0A8
:10502000F801A6E5B3E001900D928A95E1F7809131
:105030005603909157030E94CF140E945E26E6CE3D
:10504000A7E1B0E0E6E2F8E20C9466304B8B5C8BB3
:105050006D8B7E8B8F8B61111092AF031A8A198A28
:1050600085E0FE017396DE011D9601900D928A95F2
:10507000E1F786E0FE013D96DE01179601900D9264
:105080008A95E1F7CE0107960E94B826882359F049
:1050900016E080918D0390915C03891343C067965D
:1050A000E3E00C94823086E0FE013796DE01119633
:1050B00001900D928A95E1F78A859B85892B41F3B2
:1050C0008F81988589238F3F19F320915C0330E00D
:1050D000C90101968770992740918D0348171906D9
:1050E00071F40E94731A10925C0310928D0386E093
:1050F000E6E5F3E0DF011D928A95E9F7C9CF96E076
:10510000929FD001939FB00D1124A35ABC4FFE0172
:10511000319601900D929A95E1F780935C030E947D
:105120003210B6CF819FC0011124835A9C4F0E9438
:10513000B826882309F4B3CF80918D0390E00196BF
:105140008770992780938D03A4CFAAE1B0E0EBEAA2
:10515000F8E20C9457308E010F5F1F4F88E1D801A1
:105160001D928A95E9F79AE6E92E91E0F92E812CB5
:10517000912C5401839422242394312C41E8C42E91
:1051800041E0D42EF70181917F018F3F09F456C091
:10519000F894E82FE295EF70F0E021A18F70A10163
:1051A00002C0440F551F8A95E2F7CA01922F982B2F
:1051B00091A392A18095892382A3789400C08BE764
:1051C00091E09A8F898FF801240135014094509421
:1051D00060947094A98DBA8D2D91BA8FA98F40815A
:1051E0005181628173812F3F09F46BC0822F8295B8
:1051F0008F7090E0DC0190968C9190E02F7002C04F
:10520000959587952A95E2F780FD5BC04829592935
:105210006A297B2940835183628373833496498D45
:105220005A8DC416D506B1F6F701319780818F3FAC
:1052300011F00E94EB0D50EA5A95F1F7880C991C79
:10524000AA1CBB1C8BE7E81681E0F80609F09ACF90
:1052500048E150E0B80188EB93E00E940531892BCA
:10526000A9F188E1F801A8EBB3E001900D928A95CD
:10527000E1F781E08093B7030E943D209093B6034D
:105280008093B5038091B5039091B6030E942E20C0
:10529000059700F148E150E068EB73E08AEE93E097
:1052A0000E940531892BD9F088E1E8EBF3E0AAEE02
:1052B000B3E001900D928A95E1F781E01092B70377
:1052C0000AC04421552166217721A4CF8091B703DC
:1052D0008111D8CF80E06A96E2E10C94733080E0CF
:1052E000EDCFA5E0B0E0E7E7F9E20C9465300E946D
:1052F0003D208C018091B3039091B40380179107F6
:10530000A1F08FEF89838A831B820E943D208160F8
:10531000782F9D838C8349815A816B818D810E9476
:1053200020281093B4030093B3032596E4E00C9473
:1053300081301F921FB61F9211248F939F93AF93BA
:10534000BF938091FC06811113C08091FD0690915E
:10535000FE06A091FF06B09100074196A11DB11D68
:105360008093FD069093FE06A093FF06B09300077E
:10537000BF91AF919F918F911F901FBE1F90189565
:10538000CDB7DEB7E2970FB6F894DEBF0FBECDBF44
:1053900085B7806885BF85B7806885BF84B7877FFC
:1053A00084BF0FB6F894A8958091600088618093BF
:1053B0006000109260000FBE80E890E00FB6F89495
:1053C00080936100909361000FBE87E291E190931A
:1053D0000D0380930C030E94F8050E9499068091AA
:1053E000E20084608093E200789480912B07882308
:1053F000A1F01091E9001F709091EC00892F81704D
:1054000090FD80E8182B1092E9008091E80083FD60
:105410000E94931A1F701093E90082E084BD93E00C
:1054200095BD9AEF97BD80936E000E94061581117D
:1054300002C00E9453140AE611E07BE7E72E71E0F8
:10544000F72ED8018D918D018F3F11F00E94EB0D49
:10545000E016F106B1F70BE711E0F80181918F0139
:105460008F3F11F00E94EB0DF1E001381F07A9F703
:1054700088E1EAEEF3E0DF01282F1D922A95E9F793
:10548000E8EBF3E0DF011D928A95E9F70E94D91954
:10549000811102C00E94351E82E090E00E942B31F3
:1054A0008093FB0684E090E00E94333190930207E2
:1054B000809301070E94A528BFEFE6E7F1E0B15015
:1054C000E040F040E1F700C000000E94A528809174
:1054D000EA0380FF08C06FEF7FEF90E080E00E945A
:1054E00067310E94EF1183E090E00E942B310E940F
:1054F000FF100E94FF1510923F078FEF9FEF9093D0
:1055000059078093580790935B0780935A079093AD
:105510005D0780935C0790935F0780935E0790938D
:10552000610780936007909363078093620790936D
:1055300065078093640790936707809366071092CE
:1055400006049093200480931F0490932204809378
:105550002104909324048093230490932604809341
:105560002504909328048093270490932A04809321
:10557000290490932C0480932B0490932E04809301
:105580002D040E94D919811110C08091FB0680FF63
:1055900008C080EE93E09F938F930E94EF050F90D9
:1055A0000F900E94351E0E94C21681E08093340441
:1055B00046E050E06CE170E089E397E00E941B3127
:1055C00010923404809139078C7F71F48091FB062E
:1055D00080FF08C08BE893E09F938F930E94EF05B4
:1055E0000F900F900E94C2168091FB0680FF89C029
:1055F00081E793E09F938F930E94EF058091FB06D4
:105600000F900F9080FF7DC08091390783701F92AB
:105610008F9382E593E09F938F930E94EF05809193
:10562000FB060F900F900F900F9080FF6AC0809143
:105630003907869586951F928F9385E393E09F9314
:105640008F930E94EF058091FB060F900F900F90B3
:105650000F9080FF56C080913A071F928F9387E189
:1056600093E09F938F930E94EF058091FB060F902C
:105670000F900F900F9080FF44C080913B071F92C6
:105680008F9389EF92E09F938F930E94EF05809113
:10569000FB060F900F900F900F9080FF32C080910B
:1056A0003C071F928F938BED92E09F938F930E9404
:1056B000EF058091FB060F900F900F900F9080FFE9
:1056C00020C080913D071F928F938DEB92E09F93B6
:1056D0008F930E94EF058091FB060F900F900F9023
:1056E0000F9080FF0EC080913E071F928F938FE92D
:1056F00092E09F938F930E94EF050F900F900F9071
:105700000F9080E091E09093F8068093F7068091E7
:105710002B078530A9F482E194E00E94560550E4FD
:10572000F52E63E0E62E00E112E180912B07853033
:1057300009F4FBC00E94731A0E94AC071092330454
:105740000E94A528A1EDB3E0BCA7ABA7EAEEF3E069
:10575000FEA7EDA7DF01E1EDF3E0019111912191A9
:1057600031914D915D916D917D9183E0E93EF80716
:1057700009F431C1041715072607370771F3809123
:10578000FB0681FD89C1ADE9B1E0BAA7A9A71EA2B8
:10579000ADA5BEA58D909D90AD90BD90BEA7ADA7C7
:1057A000EBA5FCA581919191A191B191FCA7EBA7EB
:1057B00088159905AA05BB0509F4A8C09C01AD018F
:1057C000282539254A255B252FA738AB49AB5AAB8D
:1057D00049A55AA558A74FA3212C412C512C320181
:1057E00043948FA598A9A9A9BAA984219521A62196
:1057F000B721892B8A2B8B2B09F474C075016401A6
:10580000C420D520E620F72029A25EA15AA381E07A
:10581000C114D104E104F10409F480E08BA30E94D7
:105820003D208160782F9DA38CA349A15AA16BA133
:105830008DA10E942028CD28CE28CF2831F0AFA1FD
:10584000B8A58C918F3F09F083C1F12C0F2D10E08A
:1058500080910604800F912F911D09976CF1E8E06B
:10586000CE2ED12CC01AD10AB801695F7B4FA60198
:1058700087E094E00E941231B801615F7B4FA6017E
:105880008FE094E00E941231A601440F551FB80129
:10589000660F771F615E7B4F8FE194E00E941231AB
:1058A000B801695E7B4FA60187E194E00E94123146
:1058B00088E08F19809306048091060490E0A32D60
:1058C000B0E09D01220F331F2D5F3D4FAA0FBB1F7C
:1058D000BD016C5F7D4F41E0480F9F1508F43CC14E
:1058E000809306042394440C551C661C771CEFA17E
:1058F000F8A53196F8A7EFA3F1E12F1272CFEBA52F
:10590000FCA5349780829182A282B3822EA12F5F60
:105910002EA349A55AA54F5E5F4F5AA749A7263027
:1059200009F036CF0E9456075EC080912B07843065
:1059300009F439C00E94DA188091330481110DC036
:105940000E94E61610920B018091390783708093B4
:105950000A010E94A215E0920C0121E02093330479
:105960001092FC0648E150E00FB6F894A8954093D9
:1059700060000FBEF092600083B7817F846083BFB8
:1059800083B7816083BF7894889583B78E7F83BF08
:105990000FB6F894A89580916000886180936000AC
:1059A000109260000FBE80912A07882309F4BDCEB3
:1059B0000E94A528EAEEF3E081919191A191B19125
:1059C000892B8A2B8B2B09F07EC282E094E08E1704
:1059D0009F0791F7AACE041715072607370709F086
:1059E000CECE0E9471290E94DA180E94AC07182FAF
:1059F0008091E903181731F11093E9030E945607CB
:105A00008091FB0682FF1EC080FF1CC085E594E0EC
:105A10000E9456058091FB0680FF14C01F921F93C1
:105A200080E594E09F938F930E94EF058091FB06A1
:105A30000F900F900F900F9080FF04C08EE494E0C1
:105A40000E94560580912B07843009F060CE83E0D8
:105A50008093E9008091E80082FF59CE8091E800B0
:105A600090E085FF06C00E941706882309F489C0CC
:105A700091E08091E8008B778093E800992309F406
:105A800046CE8981EFEFE80FE33108F0A1C0F0E0E6
:105A9000EE51FE4C0C94CD3087E294E00E94560506
:105AA0002AEEC22E23E0D22EF12CE12C32E2A32EDC
:105AB00034E0B32E48E1842E44E0942EFF92EF921E
:105AC000BF92AF920E94EF058FE194E00E945605CD
:105AD000F60141905190619071906F01842D0E9468
